{
  "_format": "hh-sol-artifact-1",
  "contractName": "ProfessionalNetworking",
  "sourceName": "contracts/LinkedIn.sol",
  "abi": [
    {
      "inputs": [
        {
          "internalType": "address",
          "name": "_topWeb3NFTAddress",
          "type": "address"
        },
        {
          "internalType": "address",
          "name": "_owner",
          "type": "address"
        }
      ],
      "stateMutability": "nonpayable",
      "type": "constructor"
    },
    {
      "inputs": [
        {
          "internalType": "address",
          "name": "owner",
          "type": "address"
        }
      ],
      "name": "OwnableInvalidOwner",
      "type": "error"
    },
    {
      "inputs": [
        {
          "internalType": "address",
          "name": "account",
          "type": "address"
        }
      ],
      "name": "OwnableUnauthorizedAccount",
      "type": "error"
    },
    {
      "anonymous": false,
      "inputs": [
        {
          "indexed": true,
          "internalType": "address",
          "name": "from",
          "type": "address"
        },
        {
          "indexed": true,
          "internalType": "address",
          "name": "to",
          "type": "address"
        }
      ],
      "name": "FriendRequestAccepted",
      "type": "event"
    },
    {
      "anonymous": false,
      "inputs": [
        {
          "indexed": true,
          "internalType": "address",
          "name": "from",
          "type": "address"
        },
        {
          "indexed": true,
          "internalType": "address",
          "name": "to",
          "type": "address"
        }
      ],
      "name": "FriendRequestSent",
      "type": "event"
    },
    {
      "anonymous": false,
      "inputs": [
        {
          "indexed": true,
          "internalType": "address",
          "name": "previousOwner",
          "type": "address"
        },
        {
          "indexed": true,
          "internalType": "address",
          "name": "newOwner",
          "type": "address"
        }
      ],
      "name": "OwnershipTransferred",
      "type": "event"
    },
    {
      "anonymous": false,
      "inputs": [
        {
          "indexed": true,
          "internalType": "address",
          "name": "author",
          "type": "address"
        },
        {
          "indexed": true,
          "internalType": "uint256",
          "name": "postId",
          "type": "uint256"
        }
      ],
      "name": "PostCreated",
      "type": "event"
    },
    {
      "inputs": [
        {
          "internalType": "address",
          "name": "_from",
          "type": "address"
        }
      ],
      "name": "acceptFriendRequest",
      "outputs": [],
      "stateMutability": "nonpayable",
      "type": "function"
    },
    {
      "inputs": [
        {
          "internalType": "string",
          "name": "_content",
          "type": "string"
        }
      ],
      "name": "createPost",
      "outputs": [],
      "stateMutability": "nonpayable",
      "type": "function"
    },
    {
      "inputs": [
        {
          "internalType": "address",
          "name": "",
          "type": "address"
        },
        {
          "internalType": "address",
          "name": "",
          "type": "address"
        }
      ],
      "name": "friendRequests",
      "outputs": [
        {
          "internalType": "bool",
          "name": "",
          "type": "bool"
        }
      ],
      "stateMutability": "view",
      "type": "function"
    },
    {
      "inputs": [],
      "name": "getAllRegisteredUsers",
      "outputs": [
        {
          "internalType": "address[]",
          "name": "",
          "type": "address[]"
        }
      ],
      "stateMutability": "view",
      "type": "function"
    },
    {
      "inputs": [],
      "name": "getFriends",
      "outputs": [
        {
          "internalType": "address[]",
          "name": "",
          "type": "address[]"
        }
      ],
      "stateMutability": "view",
      "type": "function"
    },
    {
      "inputs": [],
      "name": "getNumPosts",
      "outputs": [
        {
          "internalType": "uint256",
          "name": "",
          "type": "uint256"
        }
      ],
      "stateMutability": "view",
      "type": "function"
    },
    {
      "inputs": [
        {
          "internalType": "uint256",
          "name": "_postId",
          "type": "uint256"
        }
      ],
      "name": "getPost",
      "outputs": [
        {
          "internalType": "address",
          "name": "",
          "type": "address"
        },
        {
          "internalType": "string",
          "name": "",
          "type": "string"
        }
      ],
      "stateMutability": "view",
      "type": "function"
    },
    {
      "inputs": [
        {
          "internalType": "address",
          "name": "_user",
          "type": "address"
        }
      ],
      "name": "isUserRegistered",
      "outputs": [
        {
          "internalType": "bool",
          "name": "",
          "type": "bool"
        }
      ],
      "stateMutability": "view",
      "type": "function"
    },
    {
      "inputs": [
        {
          "internalType": "address",
          "name": "",
          "type": "address"
        }
      ],
      "name": "numFriends",
      "outputs": [
        {
          "internalType": "uint256",
          "name": "",
          "type": "uint256"
        }
      ],
      "stateMutability": "view",
      "type": "function"
    },
    {
      "inputs": [],
      "name": "owner",
      "outputs": [
        {
          "internalType": "address",
          "name": "",
          "type": "address"
        }
      ],
      "stateMutability": "view",
      "type": "function"
    },
    {
      "inputs": [
        {
          "internalType": "uint256",
          "name": "",
          "type": "uint256"
        }
      ],
      "name": "posts",
      "outputs": [
        {
          "internalType": "address",
          "name": "author",
          "type": "address"
        },
        {
          "internalType": "string",
          "name": "content",
          "type": "string"
        }
      ],
      "stateMutability": "view",
      "type": "function"
    },
    {
      "inputs": [
        {
          "internalType": "address",
          "name": "",
          "type": "address"
        }
      ],
      "name": "profiles",
      "outputs": [
        {
          "internalType": "string",
          "name": "name",
          "type": "string"
        },
        {
          "internalType": "string",
          "name": "bio",
          "type": "string"
        },
        {
          "internalType": "string",
          "name": "profilePicture",
          "type": "string"
        },
        {
          "internalType": "bool",
          "name": "hasTopWeb3NFT",
          "type": "bool"
        }
      ],
      "stateMutability": "view",
      "type": "function"
    },
    {
      "inputs": [
        {
          "internalType": "uint256",
          "name": "",
          "type": "uint256"
        }
      ],
      "name": "registeredUsers",
      "outputs": [
        {
          "internalType": "address",
          "name": "",
          "type": "address"
        }
      ],
      "stateMutability": "view",
      "type": "function"
    },
    {
      "inputs": [],
      "name": "renounceOwnership",
      "outputs": [],
      "stateMutability": "nonpayable",
      "type": "function"
    },
    {
      "inputs": [
        {
          "internalType": "address",
          "name": "_to",
          "type": "address"
        }
      ],
      "name": "sendFriendRequest",
      "outputs": [],
      "stateMutability": "nonpayable",
      "type": "function"
    },
    {
      "inputs": [
        {
          "internalType": "string",
          "name": "_name",
          "type": "string"
        },
        {
          "internalType": "string",
          "name": "_bio",
          "type": "string"
        },
        {
          "internalType": "string",
          "name": "_profilePicture",
          "type": "string"
        }
      ],
      "name": "signUp",
      "outputs": [],
      "stateMutability": "nonpayable",
      "type": "function"
    },
    {
      "inputs": [],
      "name": "topWeb3NFT",
      "outputs": [
        {
          "internalType": "contract ERC721",
          "name": "",
          "type": "address"
        }
      ],
      "stateMutability": "view",
      "type": "function"
    },
    {
      "inputs": [
        {
          "internalType": "address",
          "name": "newOwner",
          "type": "address"
        }
      ],
      "name": "transferOwnership",
      "outputs": [],
      "stateMutability": "nonpayable",
      "type": "function"
    }
  ],
  "bytecode": "0x60806040523480156200001157600080fd5b50604051620015fe380380620015fe833981016040819052620000349162000104565b806001600160a01b0381166200006457604051631e4fbdf760e01b81526000600482015260240160405180910390fd5b6200006f8162000097565b5050600680546001600160a01b0319166001600160a01b03929092169190911790556200013c565b600080546001600160a01b038381166001600160a01b0319831681178455604051919092169283917f8be0079c531659141344cd1fd0a4f28419497f9722a3daafe3b4186f6b6457e09190a35050565b80516001600160a01b0381168114620000ff57600080fd5b919050565b600080604083850312156200011857600080fd5b6200012383620000e7565b91506200013360208401620000e7565b90509250929050565b6114b2806200014c6000396000f3fe608060405234801561001057600080fd5b50600436106101165760003560e01c8063837b770a116100a2578063bbe1562711610071578063bbe1562714610268578063c7303c611461028b578063ca7badc51461029e578063cb2b6f14146102b1578063f2fde38b146102c457600080fd5b8063837b770a146102035780638a1c43ea146102165780638da5cb5b14610244578063a9f564661461025557600080fd5b8063397388af116100e9578063397388af146101ab57806340731c24146101b357806351df1253146101c6578063715018a6146101ce5780637259e0f8146101d857600080fd5b80630b1e7f831461011b578063163f7522146101455780631f8f72701461016857806332eb0a461461017d575b600080fd5b61012e610129366004610f9b565b6102d7565b60405161013c929190610ffa565b60405180910390f35b610158610153366004611042565b610399565b604051901515815260200161013c565b6101706103f8565b60405161013c9190611064565b61019d61018b366004611042565b60036020526000908152604090205481565b60405190815260200161013c565b610170610466565b61012e6101c1366004610f9b565b6104c6565b60055461019d565b6101d6610600565b005b6101eb6101e6366004610f9b565b610614565b6040516001600160a01b03909116815260200161013c565b6101d6610211366004611042565b61063e565b6101586102243660046110b1565b600260209081526000928352604080842090915290825290205460ff1681565b6000546001600160a01b03166101eb565b6101d6610263366004611042565b610730565b61027b610276366004611042565b610980565b60405161013c94939291906110e4565b6101d66102993660046111d4565b610b43565b6006546101eb906001600160a01b031681565b6101d66102bf366004611209565b610c82565b6101d66102d2366004611042565b610e69565b600581815481106102e757600080fd5b6000918252602090912060029091020180546001820180546001600160a01b0390921693509061031690611291565b80601f016020809104026020016040519081016040528092919081815260200182805461034290611291565b801561038f5780601f106103645761010080835404028352916020019161038f565b820191906000526020600020905b81548152906001019060200180831161037257829003601f168201915b5050505050905082565b6000805b6004548110156103ef57826001600160a01b0316600482815481106103c4576103c46112cb565b6000918252602090912001546001600160a01b0316036103e75750600192915050565b60010161039d565b50600092915050565b3360009081526001602090815260409182902060030180548351818402810184019094528084526060939283018282801561045c57602002820191906000526020600020905b81546001600160a01b0316815260019091019060200180831161043e575b5050505050905090565b6060600480548060200260200160405190810160405280929190818152602001828054801561045c576020028201919060005260206000209081546001600160a01b0316815260019091019060200180831161043e575050505050905090565b60055460009060609083106105145760405162461bcd60e51b815260206004820152600f60248201526e125b9d985b1a59081c1bdcdd081251608a1b60448201526064015b60405180910390fd5b600060058481548110610529576105296112cb565b60009182526020918290206040805180820190915260029092020180546001600160a01b03168252600181018054929391929184019161056890611291565b80601f016020809104026020016040519081016040528092919081815260200182805461059490611291565b80156105e15780601f106105b6576101008083540402835291602001916105e1565b820191906000526020600020905b8154815290600101906020018083116105c457829003601f168201915b5050505050815250509050806000015181602001519250925050915091565b610608610ea4565b6106126000610ed1565b565b6004818154811061062457600080fd5b6000918252602090912001546001600160a01b0316905081565b6001600160a01b03811633036106a55760405162461bcd60e51b815260206004820152602660248201527f43616e6e6f742073656e6420667269656e64207265717565737420746f20796f6044820152653ab939b2b63360d11b606482015260840161050b565b336000908152600160205260409020600301546005116106d75760405162461bcd60e51b815260040161050b906112e1565b3360008181526002602090815260408083206001600160a01b0386168085529252808320805460ff19166001179055519092917f2b4b3b31b7040b3566331c8302dff4a575764757795335d5e9184fd4174c33b291a350565b6001600160a01b038116600090815260026020908152604080832033845290915290205460ff166107a35760405162461bcd60e51b815260206004820181905260248201527f4e6f20667269656e6420726571756573742066726f6d20746869732075736572604482015260640161050b565b336000908152600160205260409020600301546005116107d55760405162461bcd60e51b815260040161050b906112e1565b3360008181526001602081815260408084206003908101805480860182559086528386200180546001600160a01b0389166001600160a01b031991821681179092559086528286208201805495860181558652838620909401805490941686179093559383525290812080549161084b83611339565b90915550506001600160a01b038116600090815260036020526040812080549161087483611339565b90915550506001600160a01b0381166000818152600260209081526040808320338085529252808320805460ff19169055519092917f4738efa342d2c6adcb0441cad1723818b7f5b5d6d846c0005945b21d6642e79d91a3336000908152600360208190526040909120541480156108ff57503360009081526001602052604090206004015460ff16155b1561097d576040516340c10f1960e01b8152336004820181905260006024830152906340c10f1990604401600060405180830381600087803b15801561094457600080fd5b505af1158015610958573d6000803e3d6000fd5b5050336000908152600160208190526040909120600401805460ff1916909117905550505b50565b60016020526000908152604090208054819061099b90611291565b80601f01602080910402602001604051908101604052809291908181526020018280546109c790611291565b8015610a145780601f106109e957610100808354040283529160200191610a14565b820191906000526020600020905b8154815290600101906020018083116109f757829003601f168201915b505050505090806001018054610a2990611291565b80601f0160208091040260200160405190810160405280929190818152602001828054610a5590611291565b8015610aa25780601f10610a7757610100808354040283529160200191610aa2565b820191906000526020600020905b815481529060010190602001808311610a8557829003601f168201915b505050505090806002018054610ab790611291565b80601f0160208091040260200160405190810160405280929190818152602001828054610ae390611291565b8015610b305780601f10610b0557610100808354040283529160200191610b30565b820191906000526020600020905b815481529060010190602001808311610b1357829003601f168201915b5050506004909301549192505060ff1684565b3360009081526001602052604090206004015460ff16610ba55760405162461bcd60e51b815260206004820152601e60248201527f5573657220646f6573206e6f74206861766520544f5057454233204e46540000604482015260640161050b565b60408051808201909152338152602081018281526005805460018101825560009190915282517f036b6384b5eca791c62761152d0c79bb0604c104a5fb6f4eb0703f3154bb3db0600290920291820180546001600160a01b0319166001600160a01b0390921691909117815591517f036b6384b5eca791c62761152d0c79bb0604c104a5fb6f4eb0703f3154bb3db190910190610c4290826113a3565b5050600554610c549150600190611463565b60405133907f09cf2578b7d56ad392e46d90ca0c5004ffca074e158a150ccc34aac58ce1b8c690600090a350565b6000835111610ccc5760405162461bcd60e51b81526020600482015260166024820152754e616d65206d757374206e6f7420626520656d70747960501b604482015260640161050b565b6000825111610d155760405162461bcd60e51b815260206004820152601560248201527442696f206d757374206e6f7420626520656d70747960581b604482015260640161050b565b6000815111610d705760405162461bcd60e51b815260206004820152602160248201527f50726f66696c652070696374757265206d757374206e6f7420626520656d70746044820152607960f81b606482015260840161050b565b6040805160a081018252848152602080820185905281830184905282516000808252818301855260608401919091526080830181905233815260019091529190912081518190610dc090826113a3565b5060208201516001820190610dd590826113a3565b5060408201516002820190610dea90826113a3565b5060608201518051610e06916003840191602090910190610f21565b50608091909101516004918201805491151560ff1990921691909117905580546001810182556000919091527f8a35acfbc15ff81a39ae7d344fd709f28e8600b4aa8c65c6b64bfe7fe36bd19b0180546001600160a01b03191633179055505050565b610e71610ea4565b6001600160a01b038116610e9b57604051631e4fbdf760e01b81526000600482015260240161050b565b61097d81610ed1565b6000546001600160a01b031633146106125760405163118cdaa760e01b815233600482015260240161050b565b600080546001600160a01b038381166001600160a01b0319831681178455604051919092169283917f8be0079c531659141344cd1fd0a4f28419497f9722a3daafe3b4186f6b6457e09190a35050565b828054828255906000526020600020908101928215610f76579160200282015b82811115610f7657825182546001600160a01b0319166001600160a01b03909116178255602090920191600190910190610f41565b50610f82929150610f86565b5090565b5b80821115610f825760008155600101610f87565b600060208284031215610fad57600080fd5b5035919050565b6000815180845260005b81811015610fda57602081850181015186830182015201610fbe565b506000602082860101526020601f19601f83011685010191505092915050565b6001600160a01b038316815260406020820181905260009061101e90830184610fb4565b949350505050565b80356001600160a01b038116811461103d57600080fd5b919050565b60006020828403121561105457600080fd5b61105d82611026565b9392505050565b6020808252825182820181905260009190848201906040850190845b818110156110a55783516001600160a01b031683529284019291840191600101611080565b50909695505050505050565b600080604083850312156110c457600080fd5b6110cd83611026565b91506110db60208401611026565b90509250929050565b6080815260006110f76080830187610fb4565b82810360208401526111098187610fb4565b9050828103604084015261111d8186610fb4565b915050821515606083015295945050505050565b634e487b7160e01b600052604160045260246000fd5b600082601f83011261115857600080fd5b813567ffffffffffffffff8082111561117357611173611131565b604051601f8301601f19908116603f0116810190828211818310171561119b5761119b611131565b816040528381528660208588010111156111b457600080fd5b836020870160208301376000602085830101528094505050505092915050565b6000602082840312156111e657600080fd5b813567ffffffffffffffff8111156111fd57600080fd5b61101e84828501611147565b60008060006060848603121561121e57600080fd5b833567ffffffffffffffff8082111561123657600080fd5b61124287838801611147565b9450602086013591508082111561125857600080fd5b61126487838801611147565b9350604086013591508082111561127a57600080fd5b5061128786828701611147565b9150509250925092565b600181811c908216806112a557607f821691505b6020821081036112c557634e487b7160e01b600052602260045260246000fd5b50919050565b634e487b7160e01b600052603260045260246000fd5b60208082526022908201527f5573657220616c7265616479206861732035206f72206d6f726520667269656e604082015261647360f01b606082015260800190565b634e487b7160e01b600052601160045260246000fd5b60006001820161134b5761134b611323565b5060010190565b601f82111561139e576000816000526020600020601f850160051c8101602086101561137b5750805b601f850160051c820191505b8181101561139a57828155600101611387565b5050505b505050565b815167ffffffffffffffff8111156113bd576113bd611131565b6113d1816113cb8454611291565b84611352565b602080601f83116001811461140657600084156113ee5750858301515b600019600386901b1c1916600185901b17855561139a565b600085815260208120601f198616915b8281101561143557888601518255948401946001909101908401611416565b50858210156114535787850151600019600388901b60f8161c191681555b5050505050600190811b01905550565b8181038181111561147657611476611323565b9291505056fea2646970667358221220ee0365b422379ea2e9cfe474d41565ae327c6be63644f7e1f89cdafa98f4b04564736f6c63430008180033",
  "linkReferences": {},
  "deployedLinkReferences": {}
}