{
  "_format": "hh-sol-artifact-1",
  "contractName": "TOPWEB3NFT",
  "sourceName": "contracts/TopWeb3.sol",
  "abi": [
    {
      "inputs": [
        {
          "internalType": "address",
          "name": "_owner",
          "type": "address"
        }
      ],
      "stateMutability": "nonpayable",
      "type": "constructor"
    },
    {
      "inputs": [
        {
          "internalType": "address",
          "name": "sender",
          "type": "address"
        },
        {
          "internalType": "uint256",
          "name": "tokenId",
          "type": "uint256"
        },
        {
          "internalType": "address",
          "name": "owner",
          "type": "address"
        }
      ],
      "name": "ERC721IncorrectOwner",
      "type": "error"
    },
    {
      "inputs": [
        {
          "internalType": "address",
          "name": "operator",
          "type": "address"
        },
        {
          "internalType": "uint256",
          "name": "tokenId",
          "type": "uint256"
        }
      ],
      "name": "ERC721InsufficientApproval",
      "type": "error"
    },
    {
      "inputs": [
        {
          "internalType": "address",
          "name": "approver",
          "type": "address"
        }
      ],
      "name": "ERC721InvalidApprover",
      "type": "error"
    },
    {
      "inputs": [
        {
          "internalType": "address",
          "name": "operator",
          "type": "address"
        }
      ],
      "name": "ERC721InvalidOperator",
      "type": "error"
    },
    {
      "inputs": [
        {
          "internalType": "address",
          "name": "owner",
          "type": "address"
        }
      ],
      "name": "ERC721InvalidOwner",
      "type": "error"
    },
    {
      "inputs": [
        {
          "internalType": "address",
          "name": "receiver",
          "type": "address"
        }
      ],
      "name": "ERC721InvalidReceiver",
      "type": "error"
    },
    {
      "inputs": [
        {
          "internalType": "address",
          "name": "sender",
          "type": "address"
        }
      ],
      "name": "ERC721InvalidSender",
      "type": "error"
    },
    {
      "inputs": [
        {
          "internalType": "uint256",
          "name": "tokenId",
          "type": "uint256"
        }
      ],
      "name": "ERC721NonexistentToken",
      "type": "error"
    },
    {
      "inputs": [
        {
          "internalType": "address",
          "name": "owner",
          "type": "address"
        }
      ],
      "name": "OwnableInvalidOwner",
      "type": "error"
    },
    {
      "inputs": [
        {
          "internalType": "address",
          "name": "account",
          "type": "address"
        }
      ],
      "name": "OwnableUnauthorizedAccount",
      "type": "error"
    },
    {
      "anonymous": false,
      "inputs": [
        {
          "indexed": true,
          "internalType": "address",
          "name": "owner",
          "type": "address"
        },
        {
          "indexed": true,
          "internalType": "address",
          "name": "approved",
          "type": "address"
        },
        {
          "indexed": true,
          "internalType": "uint256",
          "name": "tokenId",
          "type": "uint256"
        }
      ],
      "name": "Approval",
      "type": "event"
    },
    {
      "anonymous": false,
      "inputs": [
        {
          "indexed": true,
          "internalType": "address",
          "name": "owner",
          "type": "address"
        },
        {
          "indexed": true,
          "internalType": "address",
          "name": "operator",
          "type": "address"
        },
        {
          "indexed": false,
          "internalType": "bool",
          "name": "approved",
          "type": "bool"
        }
      ],
      "name": "ApprovalForAll",
      "type": "event"
    },
    {
      "anonymous": false,
      "inputs": [
        {
          "indexed": true,
          "internalType": "address",
          "name": "previousOwner",
          "type": "address"
        },
        {
          "indexed": true,
          "internalType": "address",
          "name": "newOwner",
          "type": "address"
        }
      ],
      "name": "OwnershipTransferred",
      "type": "event"
    },
    {
      "anonymous": false,
      "inputs": [
        {
          "indexed": true,
          "internalType": "address",
          "name": "from",
          "type": "address"
        },
        {
          "indexed": true,
          "internalType": "address",
          "name": "to",
          "type": "address"
        },
        {
          "indexed": true,
          "internalType": "uint256",
          "name": "tokenId",
          "type": "uint256"
        }
      ],
      "name": "Transfer",
      "type": "event"
    },
    {
      "inputs": [
        {
          "internalType": "address",
          "name": "to",
          "type": "address"
        },
        {
          "internalType": "uint256",
          "name": "tokenId",
          "type": "uint256"
        }
      ],
      "name": "approve",
      "outputs": [],
      "stateMutability": "nonpayable",
      "type": "function"
    },
    {
      "inputs": [
        {
          "internalType": "address",
          "name": "owner",
          "type": "address"
        }
      ],
      "name": "balanceOf",
      "outputs": [
        {
          "internalType": "uint256",
          "name": "",
          "type": "uint256"
        }
      ],
      "stateMutability": "view",
      "type": "function"
    },
    {
      "inputs": [
        {
          "internalType": "uint256",
          "name": "tokenId",
          "type": "uint256"
        }
      ],
      "name": "getApproved",
      "outputs": [
        {
          "internalType": "address",
          "name": "",
          "type": "address"
        }
      ],
      "stateMutability": "view",
      "type": "function"
    },
    {
      "inputs": [
        {
          "internalType": "address",
          "name": "owner",
          "type": "address"
        },
        {
          "internalType": "address",
          "name": "operator",
          "type": "address"
        }
      ],
      "name": "isApprovedForAll",
      "outputs": [
        {
          "internalType": "bool",
          "name": "",
          "type": "bool"
        }
      ],
      "stateMutability": "view",
      "type": "function"
    },
    {
      "inputs": [
        {
          "internalType": "address",
          "name": "to",
          "type": "address"
        },
        {
          "internalType": "uint256",
          "name": "tokenId",
          "type": "uint256"
        }
      ],
      "name": "mint",
      "outputs": [],
      "stateMutability": "nonpayable",
      "type": "function"
    },
    {
      "inputs": [
        {
          "internalType": "address",
          "name": "recipient",
          "type": "address"
        },
        {
          "internalType": "uint256",
          "name": "currentFriendsCount",
          "type": "uint256"
        }
      ],
      "name": "mintNFTIfQualified",
      "outputs": [],
      "stateMutability": "nonpayable",
      "type": "function"
    },
    {
      "inputs": [],
      "name": "name",
      "outputs": [
        {
          "internalType": "string",
          "name": "",
          "type": "string"
        }
      ],
      "stateMutability": "view",
      "type": "function"
    },
    {
      "inputs": [],
      "name": "owner",
      "outputs": [
        {
          "internalType": "address",
          "name": "",
          "type": "address"
        }
      ],
      "stateMutability": "view",
      "type": "function"
    },
    {
      "inputs": [
        {
          "internalType": "uint256",
          "name": "tokenId",
          "type": "uint256"
        }
      ],
      "name": "ownerOf",
      "outputs": [
        {
          "internalType": "address",
          "name": "",
          "type": "address"
        }
      ],
      "stateMutability": "view",
      "type": "function"
    },
    {
      "inputs": [],
      "name": "renounceOwnership",
      "outputs": [],
      "stateMutability": "nonpayable",
      "type": "function"
    },
    {
      "inputs": [
        {
          "internalType": "address",
          "name": "from",
          "type": "address"
        },
        {
          "internalType": "address",
          "name": "to",
          "type": "address"
        },
        {
          "internalType": "uint256",
          "name": "tokenId",
          "type": "uint256"
        }
      ],
      "name": "safeTransferFrom",
      "outputs": [],
      "stateMutability": "nonpayable",
      "type": "function"
    },
    {
      "inputs": [
        {
          "internalType": "address",
          "name": "from",
          "type": "address"
        },
        {
          "internalType": "address",
          "name": "to",
          "type": "address"
        },
        {
          "internalType": "uint256",
          "name": "tokenId",
          "type": "uint256"
        },
        {
          "internalType": "bytes",
          "name": "data",
          "type": "bytes"
        }
      ],
      "name": "safeTransferFrom",
      "outputs": [],
      "stateMutability": "nonpayable",
      "type": "function"
    },
    {
      "inputs": [
        {
          "internalType": "address",
          "name": "operator",
          "type": "address"
        },
        {
          "internalType": "bool",
          "name": "approved",
          "type": "bool"
        }
      ],
      "name": "setApprovalForAll",
      "outputs": [],
      "stateMutability": "nonpayable",
      "type": "function"
    },
    {
      "inputs": [
        {
          "internalType": "bytes4",
          "name": "interfaceId",
          "type": "bytes4"
        }
      ],
      "name": "supportsInterface",
      "outputs": [
        {
          "internalType": "bool",
          "name": "",
          "type": "bool"
        }
      ],
      "stateMutability": "view",
      "type": "function"
    },
    {
      "inputs": [],
      "name": "symbol",
      "outputs": [
        {
          "internalType": "string",
          "name": "",
          "type": "string"
        }
      ],
      "stateMutability": "view",
      "type": "function"
    },
    {
      "inputs": [
        {
          "internalType": "uint256",
          "name": "tokenId",
          "type": "uint256"
        }
      ],
      "name": "tokenURI",
      "outputs": [
        {
          "internalType": "string",
          "name": "",
          "type": "string"
        }
      ],
      "stateMutability": "view",
      "type": "function"
    },
    {
      "inputs": [
        {
          "internalType": "address",
          "name": "from",
          "type": "address"
        },
        {
          "internalType": "address",
          "name": "to",
          "type": "address"
        },
        {
          "internalType": "uint256",
          "name": "tokenId",
          "type": "uint256"
        }
      ],
      "name": "transferFrom",
      "outputs": [],
      "stateMutability": "nonpayable",
      "type": "function"
    },
    {
      "inputs": [
        {
          "internalType": "address",
          "name": "newOwner",
          "type": "address"
        }
      ],
      "name": "transferOwnership",
      "outputs": [],
      "stateMutability": "nonpayable",
      "type": "function"
    }
  ],
  "bytecode": "0x60806040523480156200001157600080fd5b50604051620014e8380380620014e883398101604081905262000034916200012d565b806040518060400160405280600a8152602001691513d415d1508cd3919560b21b815250604051806040016040528060058152602001641515d3919560da1b815250816000908162000087919062000206565b50600162000096828262000206565b5050506001600160a01b038116620000c857604051631e4fbdf760e01b81526000600482015260240160405180910390fd5b620000d381620000db565b5050620002d2565b600680546001600160a01b038381166001600160a01b0319831681179093556040519116919082907f8be0079c531659141344cd1fd0a4f28419497f9722a3daafe3b4186f6b6457e090600090a35050565b6000602082840312156200014057600080fd5b81516001600160a01b03811681146200015857600080fd5b9392505050565b634e487b7160e01b600052604160045260246000fd5b600181811c908216806200018a57607f821691505b602082108103620001ab57634e487b7160e01b600052602260045260246000fd5b50919050565b601f82111562000201576000816000526020600020601f850160051c81016020861015620001dc5750805b601f850160051c820191505b81811015620001fd57828155600101620001e8565b5050505b505050565b81516001600160401b038111156200022257620002226200015f565b6200023a8162000233845462000175565b84620001b1565b602080601f831160018114620002725760008415620002595750858301515b600019600386901b1c1916600185901b178555620001fd565b600085815260208120601f198616915b82811015620002a35788860151825594840194600190910190840162000282565b5085821015620002c25787850151600019600388901b60f8161c191681555b5050505050600190811b01905550565b61120680620002e26000396000f3fe608060405234801561001057600080fd5b50600436106101165760003560e01c8063715018a6116100a2578063b88d4fde11610071578063b88d4fde14610239578063c87b56dd1461024c578063e985e9c51461025f578063ee46780514610272578063f2fde38b1461028557600080fd5b8063715018a6146102055780638da5cb5b1461020d57806395d89b411461021e578063a22cb4651461022657600080fd5b806323b872dd116100e957806323b872dd1461019857806340c10f19146101ab57806342842e0e146101be5780636352211e146101d157806370a08231146101e457600080fd5b806301ffc9a71461011b57806306fdde0314610143578063081812fc14610158578063095ea7b314610183575b600080fd5b61012e610129366004610e76565b610298565b60405190151581526020015b60405180910390f35b61014b6102ea565b60405161013a9190610ee3565b61016b610166366004610ef6565b61037c565b6040516001600160a01b03909116815260200161013a565b610196610191366004610f2b565b6103a5565b005b6101966101a6366004610f55565b6103b4565b6101966101b9366004610f2b565b610444565b6101966101cc366004610f55565b610499565b61016b6101df366004610ef6565b6104b9565b6101f76101f2366004610f91565b6104c4565b60405190815260200161013a565b61019661050c565b6006546001600160a01b031661016b565b61014b610520565b610196610234366004610fac565b61052f565b610196610247366004610ffe565b61053a565b61014b61025a366004610ef6565b610551565b61012e61026d3660046110da565b6105c6565b610196610280366004610f2b565b6105f4565b610196610293366004610f91565b6106cb565b60006001600160e01b031982166380ac58cd60e01b14806102c957506001600160e01b03198216635b5e139f60e01b145b806102e457506301ffc9a760e01b6001600160e01b03198316145b92915050565b6060600080546102f99061110d565b80601f01602080910402602001604051908101604052809291908181526020018280546103259061110d565b80156103725780601f1061034757610100808354040283529160200191610372565b820191906000526020600020905b81548152906001019060200180831161035557829003601f168201915b5050505050905090565b600061038782610709565b506000828152600460205260409020546001600160a01b03166102e4565b6103b0828233610742565b5050565b6001600160a01b0382166103e357604051633250574960e11b8152600060048201526024015b60405180910390fd5b60006103f083833361074f565b9050836001600160a01b0316816001600160a01b03161461043e576040516364283d7b60e01b81526001600160a01b03808616600483015260248201849052821660448201526064016103da565b50505050565b61044c610848565b801561048f5760405162461bcd60e51b81526020600482015260126024820152710546f6b656e204944206d75737420626520360741b60448201526064016103da565b6103b08282610875565b6104b48383836040518060200160405280600081525061053a565b505050565b60006102e482610709565b60006001600160a01b0382166104f0576040516322718ad960e21b8152600060048201526024016103da565b506001600160a01b031660009081526003602052604090205490565b610514610848565b61051e600061088f565b565b6060600180546102f99061110d565b6103b03383836108e1565b6105458484846103b4565b61043e84848484610980565b606061055c82610709565b50600061057460408051602081019091526000815290565b9050600081511161059457604051806020016040528060008152506105bf565b8061059e84610aa9565b6040516020016105af929190611147565b6040516020818303038152906040525b9392505050565b6001600160a01b03918216600090815260056020908152604080832093909416825291909152205460ff1690565b6105fc610848565b600381101561065f5760405162461bcd60e51b815260206004820152602960248201527f5573657220646f6573206e6f74206861766520656e6f75676820667269656e646044820152681cc8199bdc8813919560ba1b60648201526084016103da565b610668826104c4565b156106c05760405162461bcd60e51b815260206004820152602260248201527f526563697069656e7420616c726561647920686173206120544f50574542334e604482015261119560f21b60648201526084016103da565b6103b0826000610875565b6106d3610848565b6001600160a01b0381166106fd57604051631e4fbdf760e01b8152600060048201526024016103da565b6107068161088f565b50565b6000818152600260205260408120546001600160a01b0316806102e457604051637e27328960e01b8152600481018490526024016103da565b6104b48383836001610b3c565b6000828152600260205260408120546001600160a01b039081169083161561077c5761077c818486610c42565b6001600160a01b038116156107ba57610799600085600080610b3c565b6001600160a01b038116600090815260036020526040902080546000190190555b6001600160a01b038516156107e9576001600160a01b0385166000908152600360205260409020805460010190555b60008481526002602052604080822080546001600160a01b0319166001600160a01b0389811691821790925591518793918516917fddf252ad1be2c89b69c2b068fc378daa952ba7f163c4a11628f55a4df523b3ef91a4949350505050565b6006546001600160a01b0316331461051e5760405163118cdaa760e01b81523360048201526024016103da565b6103b0828260405180602001604052806000815250610ca6565b600680546001600160a01b038381166001600160a01b0319831681179093556040519116919082907f8be0079c531659141344cd1fd0a4f28419497f9722a3daafe3b4186f6b6457e090600090a35050565b6001600160a01b03821661091357604051630b61174360e31b81526001600160a01b03831660048201526024016103da565b6001600160a01b03838116600081815260056020908152604080832094871680845294825291829020805460ff191686151590811790915591519182527f17307eab39ab6107e8899845ad3d59bd9653f200f220920489ca2b5937696c31910160405180910390a3505050565b6001600160a01b0383163b1561043e57604051630a85bd0160e11b81526001600160a01b0384169063150b7a02906109c2903390889087908790600401611176565b6020604051808303816000875af19250505080156109fd575060408051601f3d908101601f191682019092526109fa918101906111b3565b60015b610a66573d808015610a2b576040519150601f19603f3d011682016040523d82523d6000602084013e610a30565b606091505b508051600003610a5e57604051633250574960e11b81526001600160a01b03851660048201526024016103da565b805181602001fd5b6001600160e01b03198116630a85bd0160e11b14610aa257604051633250574960e11b81526001600160a01b03851660048201526024016103da565b5050505050565b60606000610ab683610cbd565b600101905060008167ffffffffffffffff811115610ad657610ad6610fe8565b6040519080825280601f01601f191660200182016040528015610b00576020820181803683370190505b5090508181016020015b600019016f181899199a1a9b1b9c1cb0b131b232b360811b600a86061a8153600a8504945084610b0a57509392505050565b8080610b5057506001600160a01b03821615155b15610c12576000610b6084610709565b90506001600160a01b03831615801590610b8c5750826001600160a01b0316816001600160a01b031614155b8015610b9f5750610b9d81846105c6565b155b15610bc85760405163a9fbf51f60e01b81526001600160a01b03841660048201526024016103da565b8115610c105783856001600160a01b0316826001600160a01b03167f8c5be1e5ebec7d5bd14f71427d1e84f3dd0314c0f7b2291e5b200ac8c7c3b92560405160405180910390a45b505b5050600090815260046020526040902080546001600160a01b0319166001600160a01b0392909216919091179055565b610c4d838383610d95565b6104b4576001600160a01b038316610c7b57604051637e27328960e01b8152600481018290526024016103da565b60405163177e802f60e01b81526001600160a01b0383166004820152602481018290526044016103da565b610cb08383610dfb565b6104b46000848484610980565b60008072184f03e93ff9f4daa797ed6e38ed64bf6a1f0160401b8310610cfc5772184f03e93ff9f4daa797ed6e38ed64bf6a1f0160401b830492506040015b6d04ee2d6d415b85acef81000000008310610d28576d04ee2d6d415b85acef8100000000830492506020015b662386f26fc100008310610d4657662386f26fc10000830492506010015b6305f5e1008310610d5e576305f5e100830492506008015b6127108310610d7257612710830492506004015b60648310610d84576064830492506002015b600a83106102e45760010192915050565b60006001600160a01b03831615801590610df35750826001600160a01b0316846001600160a01b03161480610dcf5750610dcf84846105c6565b80610df357506000828152600460205260409020546001600160a01b038481169116145b949350505050565b6001600160a01b038216610e2557604051633250574960e11b8152600060048201526024016103da565b6000610e338383600061074f565b90506001600160a01b038116156104b4576040516339e3563760e11b8152600060048201526024016103da565b6001600160e01b03198116811461070657600080fd5b600060208284031215610e8857600080fd5b81356105bf81610e60565b60005b83811015610eae578181015183820152602001610e96565b50506000910152565b60008151808452610ecf816020860160208601610e93565b601f01601f19169290920160200192915050565b6020815260006105bf6020830184610eb7565b600060208284031215610f0857600080fd5b5035919050565b80356001600160a01b0381168114610f2657600080fd5b919050565b60008060408385031215610f3e57600080fd5b610f4783610f0f565b946020939093013593505050565b600080600060608486031215610f6a57600080fd5b610f7384610f0f565b9250610f8160208501610f0f565b9150604084013590509250925092565b600060208284031215610fa357600080fd5b6105bf82610f0f565b60008060408385031215610fbf57600080fd5b610fc883610f0f565b915060208301358015158114610fdd57600080fd5b809150509250929050565b634e487b7160e01b600052604160045260246000fd5b6000806000806080858703121561101457600080fd5b61101d85610f0f565b935061102b60208601610f0f565b925060408501359150606085013567ffffffffffffffff8082111561104f57600080fd5b818701915087601f83011261106357600080fd5b81358181111561107557611075610fe8565b604051601f8201601f19908116603f0116810190838211818310171561109d5761109d610fe8565b816040528281528a60208487010111156110b657600080fd5b82602086016020830137600060208483010152809550505050505092959194509250565b600080604083850312156110ed57600080fd5b6110f683610f0f565b915061110460208401610f0f565b90509250929050565b600181811c9082168061112157607f821691505b60208210810361114157634e487b7160e01b600052602260045260246000fd5b50919050565b60008351611159818460208801610e93565b83519083019061116d818360208801610e93565b01949350505050565b6001600160a01b03858116825284166020820152604081018390526080606082018190526000906111a990830184610eb7565b9695505050505050565b6000602082840312156111c557600080fd5b81516105bf81610e6056fea264697066735822122079bd34d656b0743a6a5312f6f9ba46460aafe2c3da2a04a5a2a41419e014328864736f6c63430008180033",
  "linkReferences": {},
  "deployedLinkReferences": {}
}